:100000000C942F010C9455010C9455010C9455013E
:100010000C9455010C9455010C9455010C94550108
:100020000C9455010C9455010C9455010C945501F8
:100030000C9455010C9455010C9457010C945501E6
:100040000C94BC010C9455010C9455010C94550171
:100050000C9455010C9455010C9455010C945501C8
:100060000C9455010C9455010C9455010C945501B8
:100070000C9455010C9455010C9455010C945501A8
:100080000C9455010C9455010C9455010C94550198
:100090000C9455010C9455010C9455010C94550188
:1000A0000C9455010C9455010C9455010C94550178
:1000B0000C9455010C9455010C9455010C94550168
:1000C0000C9455010C9455010C9455010C94550158
:1000D0000C9455010C9455010C9455010C94550148
:1000E0000C9455010C9455010C9455010C94550138
:1000F0000C9455010C9455010C9455010C94550128
:100100000C9455010C9455010C9455010C94550117
:100110000C9455010C9455010C9455010C94550107
:100120000C9455010C9455010C9455010C945501F7
:100130000C9455010C9455010C9455010C945501E7
:100140000C9455010C9455010C9455010C945501D7
:100150000C9455010C9455010C9455010C945501C7
:100160000C9487020C9455010C9466010C94550173
:100170000C9455010C9455010C9455010C945501A7
:100180000C9455010C9455010C94CA020C94550121
:100190000C9455010C9455010C9455010C94550187
:1001A0000C9455010C9455010C9455010C94550177
:1001B0000C9455010C9455010C9455010C94550167
:1001C0000C9455010C9455010C9455010C94550157
:1001D0000C9455010C9455010C9455010C94550147
:1001E0000C9455010C9455010C9455010C94550137
:1001F0000C945501A9047C0481047C0486047C04CD
:100200008B047C0490047C0495047C049A047C0494
:100210009F047C047C047C047C047C047C047C04BB
:100220007C047C047C047C047C047C047C047C04CE
:100230007C047C04A4040C948B040C9481040C9422
:10024000A4040C9486040C9490040C9495040C94CF
:100250009F040C949A040C947C040C94A90411241B
:100260001FBECFEFCDBFDFE3DEBF00E00CBF18BE87
:1002700019BE1ABE1BBE10E2A0E0B0E2E8E6FDE047
:1002800000E00BBF02C007900D92A230B107D9F772
:100290001BBE20E2A2E0B0E201C01D92AC30B2076A
:1002A000E1F70E94C0030C94B2060C9400001F9268
:1002B0000F920FB60F92112408B60F9218BE0F902E
:1002C00008BE0F900FBE0F901F9018951F920F92AF
:1002D0000FB60F92112408B60F9218BE0F9008BEE9
:1002E0000F900FBE0F901F9018958091092090914C
:1002F0000A208032934068F590912407809106206F
:10030000892B809324079091A40680910520892B46
:100310008093A40684E08093000820910920309106
:100320000A2060E273E0269FC001279F900D369F50
:10033000900D11240E94D50488EE93E0861B970B44
:100340008093280890932908109220081092210881
:100350000895109208201092000810922808109218
:1003600029088091A40980618093A40981E3809386
:10037000A0091092E40608951F920F920FB60F92F3
:10038000112408B60F9218BE09B60F9219BE0BB60B
:100390000F921BBE2F933F934F935F936F937F9367
:1003A0008F939F93AF93BF93EF93FF93E4E2F7E0B4
:1003B000808185718083E4EAF6E0808185718083A5
:1003C0008091092090910A200196809309209093B2
:1003D0000A200E947501FF91EF91BF91AF919F910B
:1003E0008F917F916F915F914F913F912F910F90DE
:1003F0000BBE0F9009BE0F9008BE0F900FBE0F905E
:100400001F90189590910820911180C0982F91709D
:1004100041E09427909304205091072030910420CC
:100420007091072090910420E091072020910420F2
:100430006091072091959E27947037273170932BF8
:10044000219526272071922B952790930720982F8E
:1004500096959F739093042050910620209104203C
:100460006091062090910420E091062030910420B4
:10047000709106209695917091959E27987032FB09
:10048000332730F9319537273072932B217021951E
:1004900026272270922B95279093062082958F70A5
:1004A00080930420309105209091042050910520E4
:1004B00080910420709105202091042060910520F6
:1004C0008695817081958727887022FB222720F9E5
:1004D000219526272072822B9170919595279270F5
:1004E000892B8327809305201092092010920A20DF
:1004F0008091072080932407809107208093A40691
:1005000040930820109204200C94750108951F92C6
:100510000F920FB60F92112408B60F9218BE09B6AB
:100520000F9219BE0BB60F921BBE2F933F934F93A2
:100530005F936F937F938F939F93AF93BF93EF934B
:10054000FF938FEF8093E4069091A0098AE7891BBF
:1005500080930220E4EAF9E080818F7E808380919D
:1005600002200E940202FF91EF91BF91AF919F91F3
:100570008F917F916F915F914F913F912F910F904C
:100580000BBE0F9009BE0F9008BE0F900FBE0F90CC
:100590001F9018951F920F920FB60F92112408B654
:1005A0000F9218BE09B60F9219BE0BB60F921BBE62
:1005B0002F933F934F935F936F937F938F939F936B
:1005C000AF93BF93EF93FF938091080780930B2025
:1005D0008FE39CE90197F1F700C0000090910807B4
:1005E00080910B20981321C080910B20843089F0DA
:1005F00030F4813061F08230C1F484E00BC080318E
:1006000061F0803261F0883081F480E103C082E0E3
:1006100001C088E00E94020208C080E2FBCF80E4B3
:100620000E9402028FEF8093E40610920B20FF914C
:10063000EF91BF91AF919F918F917F916F915F915A
:100640004F913F912F910F900BBE0F9009BE0F90CD
:1006500008BE0F900FBE0F901F9018951F93CF9359
:10066000DF93CDB7DEB72897CDBFDEBF40E050E0C7
:1006700060E070E081E090E00E94D803BE016F5F0F
:100680007F4FCE0105960E940D04F8948FEF9FEFE7
:1006900080932608909327081092000883E18093A6
:1006A0000108109202081092030810920408109298
:1006B00028081092290811E01093060810930708E3
:1006C00084E18093A30988E18093A40983E0809367
:1006D000A50969817A818B819C810E94240620E092
:1006E00030E046E158E40E94900520E030E040E828
:1006F0005FE30E942B050E94F8056093A609DC01C8
:10070000CB0188279F70AA27BB27892F9A2FAB2F51
:10071000BB278093A709109200078FEF80930A07E9
:1007200010931707109316071093150710931407CB
:1007300010931307109312071093110710931007CB
:100740001093090794E09093C0079093C40798E032
:100750009093600680932007109224078093A00650
:100760001092A4068093E0061092E4061093A20073
:1007700078942896CDBFDEBFDF91CF911F91089569
:100780000E942E03FFCF0F93CF93DF931F92CDB71D
:10079000DEB72FB72983F8941BBEFC0108ED04BF18
:1007A000608389818FBF0F90DF91CF910F91089562
:1007B000CF93DF93D82F823059F028F4882371F03B
:1007C000813071F025C0833029F0843029F020C0B9
:1007D000C4E007C0C8E005C0C0E103C0C1E001C07B
:1007E000C2E0E0E5F0E080818C2B8083642B81E423
:1007F00090E00E94C303E1E5F0E090819C23E9F3DF
:100800006D2F80E490E00E94C30381E090E002C07D
:100810008FEF9FEFDF91CF9108950F931F93CF93A9
:10082000DF938C01EB01809140008770823061F092
:1008300030F4882309F446C0813081F0AFC08330A2
:10084000B9F08430F9F0AAC080E09DE7A0E0B0E004
:10085000F80180839183A283B3833DC080E098E454
:10086000A8EEB1E0F80180839183A283B38333C003
:1008700080E094E2A4EFB0E0F80180839183A2834A
:10088000B38329C025E530E0D9018C9180E894E854
:10089000AEE1B0E0F80180839183A283B383D901F4
:1008A0008C91A82FAF7109F4A1E0B0E020E834E802
:1008B0004EE150E00E941105F8016083718382834C
:1008C000938309C080E894E8AEE1B0E0F80180834A
:1008D0009183A283B383809141008C7790E09695B9
:1008E00087959695879501978132910528F48650D2
:1008F0009F4FFC010C940B0521E030E040E050E0FC
:100900002CC024E030E040E050E027C028E030E098
:1009100040E050E022C020E130E040E050E01DC067
:1009200020E230E040E050E018C020E430E040E059
:1009300050E013C020E830E040E050E00EC020E07E
:1009400031E040E050E009C020E032E040E050E01B
:1009500004C022E030E040E050E08091410081FF9F
:1009600009C0220F331F441F551F220F331F441F7E
:10097000551F06C080FF04C0220F331F441F551FA0
:10098000D8016D917D918D919C910E94E9042883FD
:1009900039834A835B8381E090E002C08FEF9FEF51
:1009A000DF91CF911F910F910895AA1BBB1B51E1BD
:1009B00007C0AA1FBB1FA617B70710F0A61BB70BCF
:1009C000881F991F5A95A9F780959095BC01CD0174
:1009D0000895A1E21A2EAA1BBB1BFD010DC0AA1F80
:1009E000BB1FEE1FFF1FA217B307E407F50720F098
:1009F000A21BB30BE40BF50B661F771F881F991F13
:100A00001A9469F760957095809590959B01AC015B
:100A1000BD01CF010895EE0FFF1F0590F491E02D69
:100A200019940E941C05A59F900DB49F900DA49F42
:100A3000800D911D11240895A29FB001B39FC001A4
:100A4000A39F700D811D1124911DB29F700D811DFA
:100A50001124911D08955058BB27AA270ED048C1D4
:100A600039D130F03ED120F031F49F3F11F41EF423
:100A70002EC10EF4E095E7FB24C1E92F4AD180F3A3
:100A8000BA17620773078407950718F071F49EF58B
:100A900062C10EF4E0950B2EBA2FA02D0B01B90107
:100AA00090010C01CA01A0011124FF27591B99F0E4
:100AB000593F50F4503E68F11A16F040A22F232FF0
:100AC000342F4427585FF3CF469537952795A79540
:100AD000F0405395C9F77EF41F16BA0B620B730BE7
:100AE000840BBAF09150A1F0FF0FBB1F661F771F58
:100AF000881FC2F70EC0BA0F621F731F841F48F40D
:100B0000879577956795B795F7959E3F08F0B3CF92
:100B10009395880F08F09927EE0F9795879508957C
:100B20000CD0E6C0DED040F0D5D030F021F45F3FED
:100B300019F0C7C0511110C1CAC0EBD098F3992366
:100B4000C9F35523B1F3951B550BBB27AA27621791
:100B50007307840738F09F5F5F4F220F331F441FD6
:100B6000AA1FA9F333D00E2E3AF0E0E830D091500E
:100B70005040E695001CCAF729D0FE2F27D0660FFB
:100B8000771F881FBB1F261737074807AB07B0E83A
:100B900009F0BB0B802DBF01FF2793585F4F2AF050
:100BA0009E3F510568F08DC0D7C05F3FECF3983E83
:100BB000DCF3869577956795B795F7959F5FC9F7AD
:100BC000880F911D9695879597F90895E1E0660F36
:100BD000771F881FBB1F621773078407BA0720F0AF
:100BE000621B730B840BBA0BEE1F88F7E095089518
:100BF00098D088F09F5790F0B92F9927B751A0F05F
:100C0000D1F0660F771F881F991F1AF0BA95C9F7A0
:100C100012C0B13081F09FD0B1E008959CC0672F21
:100C2000782F8827B85F39F0B93FCCF38695779550
:100C30006795B395D9F73EF4909580957095619539
:100C40007F4F8F4F9F4F0895E89409C097FB3EF464
:100C500090958095709561957F4F8F4F9F4F992309
:100C6000A9F0F92F96E9BB279395F6958795779587
:100C70006795B795F111F8CFFAF4BB0F11F460FF47
:100C80001BC06F5F7F4F8F4F9F4F16C0882311F09F
:100C900096E911C0772321F09EE8872F762F05C0B3
:100CA000662371F096E8862F70E060E02AF09A954E
:100CB000660F771F881FDAF7880F9695879597F943
:100CC000089597F99F6780E870E060E008959FEFCE
:100CD00080EC089500240A941616170618060906D3
:100CE000089500240A9412161306140605060895A2
:100CF000092E0394000C11F4882352F0BB0F40F42A
:100D0000BF2B11F460FF04C06F5F7F4F8F4F9F4F69
:100D1000089557FD9058440F551F59F05F3F71F0EB
:100D20004795880F97FB991F61F09F3F79F0879552
:100D30000895121613061406551FF2CF4695F1DFDB
:100D400008C0161617061806991FF1CF869571056B
:100D5000610508940895E894BB2766277727CB019F
:080D600097F90895F894FFCF04
:020D6800310058
:00000001FF
